:0400000007EF00F016
:10000800288213ED01F023EF01F09390948038ECEF
:1000180001F03DEC01F000EC01F02EEC01F0010ED6
:100028001C6E000E1B6E6FEC00F01A0E246E5E0E36
:10003800236E6E0EE82EFED7232EFCD7242EFAD779
:1000480000D011041210D8A42CEF00F02EEF00F00D
:100058005FEF00F0000E126E000E116ED7EC00F08C
:1000680015C023F016C024F0050E256ED890243252
:100078002332252E3AEF00F017C026F018C027F0DB
:10008800D89026362736D89026362736D890263662
:100098002736235026122450271226502710D8B46A
:1000A80058EF00F05AEF00F05EEF00F0819E818C6F
:1000B8005FEF00F0819C1A0E246E5E0E236E6E0EAA
:1000C800E82EFED7232EFCD7242EFAD700D013EF24
:1000D80000F007EF00F0000E1A6E020E196EADEC7C
:1000E80000F01BC01DF01CC01EF0050ED8901D3678
:1000F8001E36E82E7AEF00F01D501F6E206A1BC0D6
:100108001DF01CC01EF0D8901E321D32D8901E3231
:100118001D32D8901E321D321D50216E226A21C018
:1001280041FF1FC042FF080E0F01456F010E466FC9
:10013800020E476F030E486F040E496F050E4A6F93
:10014800060E4B6F070E4C6F080E4D6F080E406F72
:10015800120019041A10D8A4B4EF00F0B6EF00F09A
:10016800BAEF00F0800E6F6ED6EF00F0020E19188D
:100178001A10D8A4C2EF00F0C4EF00F0C8EF00F0E6
:10018800080E6F6ED6EF00F0030E19181A10D8A4D7
:10019800D0EF00F0D2EF00F0D6EF00F00E0E6F6E49
:1001A800D6EF00F01200000E1A6E030E196EADECB9
:1001B80000F061CF17F0186A62CF15F0166A65CFA4
:1001C80013F0146A66CF01F0026A67CF03F0046A7D
:1001D80068CF05F0066A69CF07F0086A6ACF09F0A8
:1001E8000A6A6BCF0BF00C6A6CCF0DF00E6A6DCFFC
:1001F8000FF0106A609E1200000E1A6E010E196E42
:10020800ADEC00F0C10E706EAE0E716E450E726EE2
:10021800000E1A6E020E196EADEC00F01200060008
:10022800818EA4A01AEF01F01CEF01F021EF01F07C
:10023800A490000E126E010E116E2892110000EEAD
:1002480001F0180EEE6AE806FDE1289028920001F8
:1002580009EF00F0000E0F01006F000E016F000E95
:10026800186F000E196F1200F28EF28CA380A58011
:0C027800120093949386939E939C1200B6
:020000040020DA
:08000000FFFFFFFFFFFFFFFF00
:020000040030CA
:0E000000FF021F1EFF0080FF0FC00FE00F4029
:00000001FF
